{
  "contractName": "RatRace",
  "abi": [
    {
      "inputs": [],
      "payable": false,
      "stateMutability": "nonpayable",
      "type": "constructor"
    },
    {
      "constant": false,
      "inputs": [
        {
          "name": "_ref",
          "type": "address"
        }
      ],
      "name": "createRat",
      "outputs": [],
      "payable": true,
      "stateMutability": "payable",
      "type": "function"
    },
    {
      "constant": true,
      "inputs": [],
      "name": "getRats",
      "outputs": [
        {
          "name": "",
          "type": "address[]"
        }
      ],
      "payable": false,
      "stateMutability": "view",
      "type": "function"
    },
    {
      "constant": true,
      "inputs": [
        {
          "name": "ins",
          "type": "address"
        }
      ],
      "name": "getRat",
      "outputs": [
        {
          "name": "",
          "type": "bytes32"
        },
        {
          "name": "",
          "type": "uint256"
        },
        {
          "name": "",
          "type": "uint256"
        },
        {
          "name": "",
          "type": "uint256"
        }
      ],
      "payable": false,
      "stateMutability": "view",
      "type": "function"
    },
    {
      "constant": true,
      "inputs": [],
      "name": "myRat",
      "outputs": [
        {
          "name": "",
          "type": "bytes32"
        },
        {
          "name": "",
          "type": "uint256"
        },
        {
          "name": "",
          "type": "uint256"
        },
        {
          "name": "",
          "type": "uint256"
        }
      ],
      "payable": false,
      "stateMutability": "view",
      "type": "function"
    },
    {
      "constant": false,
      "inputs": [],
      "name": "updateFatRatTop",
      "outputs": [],
      "payable": true,
      "stateMutability": "payable",
      "type": "function"
    },
    {
      "constant": false,
      "inputs": [
        {
          "name": "code",
          "type": "string"
        }
      ],
      "name": "registerReferral",
      "outputs": [],
      "payable": true,
      "stateMutability": "payable",
      "type": "function"
    },
    {
      "constant": true,
      "inputs": [],
      "name": "raceInfo",
      "outputs": [
        {
          "name": "",
          "type": "uint256"
        },
        {
          "name": "",
          "type": "uint256"
        },
        {
          "name": "",
          "type": "uint256"
        },
        {
          "name": "",
          "type": "uint256"
        },
        {
          "name": "",
          "type": "uint256"
        }
      ],
      "payable": false,
      "stateMutability": "view",
      "type": "function"
    },
    {
      "constant": false,
      "inputs": [],
      "name": "startPresale",
      "outputs": [],
      "payable": true,
      "stateMutability": "payable",
      "type": "function"
    },
    {
      "constant": false,
      "inputs": [],
      "name": "withdraw",
      "outputs": [],
      "payable": true,
      "stateMutability": "payable",
      "type": "function"
    },
    {
      "constant": false,
      "inputs": [],
      "name": "endPresaleStartRace",
      "outputs": [],
      "payable": true,
      "stateMutability": "payable",
      "type": "function"
    },
    {
      "constant": false,
      "inputs": [],
      "name": "endRace",
      "outputs": [],
      "payable": true,
      "stateMutability": "payable",
      "type": "function"
    },
    {
      "constant": false,
      "inputs": [
        {
          "name": "_cheese",
          "type": "uint256"
        }
      ],
      "name": "buyPresale",
      "outputs": [],
      "payable": true,
      "stateMutability": "payable",
      "type": "function"
    },
    {
      "constant": false,
      "inputs": [
        {
          "name": "cheese",
          "type": "uint256"
        }
      ],
      "name": "feedMyRat",
      "outputs": [],
      "payable": true,
      "stateMutability": "payable",
      "type": "function"
    }
  ],
  "bytecode": "0x6080604052600060015560006002556101f460035566038d7ea4c6800060045560006005556000600655600060075560006008556000600c60146101000a81548160ff0219169083600281111561005257fe5b021790555034801561006357600080fd5b50336000806101000a81548173ffffffffffffffffffffffffffffffffffffffff021916908373ffffffffffffffffffffffffffffffffffffffff160217905550612b47806100b36000396000f3006080604052600436106100c5576000357c0100000000000000000000000000000000000000000000000000000000900463ffffffff16806304c98b2b146100ca5780630a28a0a3146100d45780630fe3481d1461011b57806318d5c938146101255780631ea0d0de146101455780633ccfd60b1461014f57806344d8bb981461015957806349c322171461018f5780635aee7aa3146101af578063b73e3fe0146101f7578063dc560ca814610263578063ef5a6af0146102d7578063f79f229414610333575b600080fd5b6100d261033d565b005b3480156100e057600080fd5b506100e96106af565b604051808681526020018581526020018481526020018381526020018281526020019550505050505060405180910390f35b61012361072b565b005b610143600480360381019080803590602001909291905050506108d9565b005b61014d61130e565b005b610157611816565b005b61018d600480360381019080803573ffffffffffffffffffffffffffffffffffffffff169060200190929190505050611990565b005b6101ad60048036038101908080359060200190929190505050611b57565b005b3480156101bb57600080fd5b506101c4611d98565b60405180856000191660001916815260200184815260200183815260200182815260200194505050505060405180910390f35b34801561020357600080fd5b5061020c611eeb565b6040518080602001828103825283818151815260200191508051906020019060200280838360005b8381101561024f578082015181840152602081019050610234565b505050509050019250505060405180910390f35b34801561026f57600080fd5b506102a4600480360381019080803573ffffffffffffffffffffffffffffffffffffffff169060200190929190505050611f79565b60405180856000191660001916815260200184815260200183815260200182815260200194505050505060405180910390f35b610331600480360381019080803590602001908201803590602001908080601f01602080910402602001604051908101604052809392919081815260200183838082843782019150505050505091929192905050506120cd565b005b61033b61220a565b005b600080806103496128a3565b600281111561035457fe5b1415156103ef576040517f08c379a00000000000000000000000000000000000000000000000000000000081526004018080602001828103825260278152602001807f52616365207374616765206572726f722d206f7065726174696f6e206e6f742081526020017f616c6c6f7765640000000000000000000000000000000000000000000000000081525060400191505060405180910390fd5b6000809054906101000a900473ffffffffffffffffffffffffffffffffffffffff1673ffffffffffffffffffffffffffffffffffffffff163373ffffffffffffffffffffffffffffffffffffffff161415156104b3576040517f08c379a00000000000000000000000000000000000000000000000000000000081526004018080602001828103825260158152602001807f53656e646572206e6f7420617574686f7269736564000000000000000000000081525060200191505060405180910390fd5b426001819055506005600354600154010160028190555060006005819055506000600881905550600091505b60108054905082101561067c576000600d600060108581548110151561050157fe5b9060005260206000200160009054906101000a900473ffffffffffffffffffffffffffffffffffffffff1673ffffffffffffffffffffffffffffffffffffffff1673ffffffffffffffffffffffffffffffffffffffff168152602001908152602001600020600101819055506000600d600060108581548110151561058257fe5b9060005260206000200160009054906101000a900473ffffffffffffffffffffffffffffffffffffffff1673ffffffffffffffffffffffffffffffffffffffff1673ffffffffffffffffffffffffffffffffffffffff168152602001908152602001600020600201819055506000600d600060108581548110151561060357fe5b9060005260206000200160009054906101000a900473ffffffffffffffffffffffffffffffffffffffff1673ffffffffffffffffffffffffffffffffffffffff1673ffffffffffffffffffffffffffffffffffffffff1681526020019081526020016000206003018190555081806001019250506104df565b6001600281111561068957fe5b600c60146101000a81548160ff021916908360028111156106a657fe5b02179055505050565b60008060008060006106bf6128a3565b60028111156106ca57fe5b6509184e72a0006005548115156106dd57fe5b046509184e72a0006006548115156106f157fe5b046509184e72a00060075481151561070557fe5b046509184e72a00060085481151561071957fe5b04945094509450945094509091929394565b6001806107366128a3565b600281111561074157fe5b1415156107dc576040517f08c379a00000000000000000000000000000000000000000000000000000000081526004018080602001828103825260278152602001807f52616365207374616765206572726f722d206f7065726174696f6e206e6f742081526020017f616c6c6f7765640000000000000000000000000000000000000000000000000081525060400191505060405180910390fd5b6000809054906101000a900473ffffffffffffffffffffffffffffffffffffffff1673ffffffffffffffffffffffffffffffffffffffff163373ffffffffffffffffffffffffffffffffffffffff161415156108a0576040517f08c379a00000000000000000000000000000000000000000000000000000000081526004018080602001828103825260158152602001807f53656e646572206e6f7420617574686f7269736564000000000000000000000081525060200191505060405180910390fd5b60006001819055506002808111156108b457fe5b600c60146101000a81548160ff021916908360028111156108d157fe5b021790555050565b60008060008060006002806108ec6128a3565b60028111156108f757fe5b141515610992576040517f08c379a00000000000000000000000000000000000000000000000000000000081526004018080602001828103825260278152602001807f52616365207374616765206572726f722d206f7065726174696f6e206e6f742081526020017f616c6c6f7765640000000000000000000000000000000000000000000000000081525060400191505060405180910390fd5b86600454810234141515610a34576040517f08c379a000000000000000000000000000000000000000000000000000000000815260040180806020018281038252602a8152602001807f6e6f7420636f727265637420616d6f756e742065746820666f7220636865657381526020017f652072657175657365640000000000000000000000000000000000000000000081525060400191505060405180910390fd5b60009650600d60003373ffffffffffffffffffffffffffffffffffffffff1673ffffffffffffffffffffffffffffffffffffffff16815260200190815260200160002060050160009054906101000a900460ff161515610a9857610a9787611990565b5b610aa334601461296c565b3401955085600d60003373ffffffffffffffffffffffffffffffffffffffff1673ffffffffffffffffffffffffffffffffffffffff1681526020019081526020016000206001016000828254019250508190555033600960006101000a81548173ffffffffffffffffffffffffffffffffffffffff021916908373ffffffffffffffffffffffffffffffffffffffff16021790555042600d60003373ffffffffffffffffffffffffffffffffffffffff1673ffffffffffffffffffffffffffffffffffffffff16815260200190815260200160002060020181905550600f60003373ffffffffffffffffffffffffffffffffffffffff1673ffffffffffffffffffffffffffffffffffffffff1681526020019081526020016000209450858560000181905550600160123390806001815401808255809150509060018203906000526020600020016000909192909190916101000a81548173ffffffffffffffffffffffffffffffffffffffff021916908373ffffffffffffffffffffffffffffffffffffffff1602179055505050603c8802600260008282540192505081905550610c4e8761299c565b600060085414158015610c65575060075460085411155b15610f2557600093505b601080549050841015610f2457600d6000601086815481101515610c8f57fe5b9060005260206000200160009054906101000a900473ffffffffffffffffffffffffffffffffffffffff1673ffffffffffffffffffffffffffffffffffffffff1673ffffffffffffffffffffffffffffffffffffffff16815260200190815260200160002060030154600760008282540392505081905550600d6000601086815481101515610d1a57fe5b9060005260206000200160009054906101000a900473ffffffffffffffffffffffffffffffffffffffff1673ffffffffffffffffffffffffffffffffffffffff1673ffffffffffffffffffffffffffffffffffffffff16815260200190815260200160002060030154600860008282540392505081905550600d6000601086815481101515610da557fe5b9060005260206000200160009054906101000a900473ffffffffffffffffffffffffffffffffffffffff1673ffffffffffffffffffffffffffffffffffffffff1673ffffffffffffffffffffffffffffffffffffffff16815260200190815260200160002060030154600d6000601087815481101515610e2157fe5b9060005260206000200160009054906101000a900473ffffffffffffffffffffffffffffffffffffffff1673ffffffffffffffffffffffffffffffffffffffff1673ffffffffffffffffffffffffffffffffffffffff168152602001908152602001600020600401600082825401925050819055506000600d6000601087815481101515610eab57fe5b9060005260206000200160009054906101000a900473ffffffffffffffffffffffffffffffffffffffff1673ffffffffffffffffffffffffffffffffffffffff1673ffffffffffffffffffffffffffffffffffffffff168152602001908152602001600020600301819055508380600101945050610c6f565b5b6000600854148015610f3957506000600754115b156112fc57600092505b6012805490508410156112fb57600f6000601285815481101515610f6357fe5b9060005260206000200160009054906101000a900473ffffffffffffffffffffffffffffffffffffffff1673ffffffffffffffffffffffffffffffffffffffff1673ffffffffffffffffffffffffffffffffffffffff168152602001908152602001600020600001546007541015610fda576112fb565b600f6000601285815481101515610fed57fe5b9060005260206000200160009054906101000a900473ffffffffffffffffffffffffffffffffffffffff1673ffffffffffffffffffffffffffffffffffffffff1673ffffffffffffffffffffffffffffffffffffffff16815260200190815260200160002060000154600760008282540392505081905550600f600060128581548110151561107857fe5b9060005260206000200160009054906101000a900473ffffffffffffffffffffffffffffffffffffffff1673ffffffffffffffffffffffffffffffffffffffff1673ffffffffffffffffffffffffffffffffffffffff16815260200190815260200160002060000154600d60006012868154811015156110f457fe5b9060005260206000200160009054906101000a900473ffffffffffffffffffffffffffffffffffffffff1673ffffffffffffffffffffffffffffffffffffffff1673ffffffffffffffffffffffffffffffffffffffff16815260200190815260200160002060040160008282540192505081905550600f600060128581548110151561117c57fe5b9060005260206000200160009054906101000a900473ffffffffffffffffffffffffffffffffffffffff1673ffffffffffffffffffffffffffffffffffffffff1673ffffffffffffffffffffffffffffffffffffffff16815260200190815260200160002060000154600d60006012868154811015156111f857fe5b9060005260206000200160009054906101000a900473ffffffffffffffffffffffffffffffffffffffff1673ffffffffffffffffffffffffffffffffffffffff1673ffffffffffffffffffffffffffffffffffffffff168152602001908152602001600020600101600082825403925050819055506000600f600060128681548110151561128257fe5b9060005260206000200160009054906101000a900473ffffffffffffffffffffffffffffffffffffffff1673ffffffffffffffffffffffffffffffffffffffff1673ffffffffffffffffffffffffffffffffffffffff168152602001908152602001600020600001819055508380600101945050610f43565b5b61130461220a565b5050505050505050565b6002806113196128a3565b600281111561132457fe5b1415156113bf576040517f08c379a00000000000000000000000000000000000000000000000000000000081526004018080602001828103825260278152602001807f52616365207374616765206572726f722d206f7065726174696f6e206e6f742081526020017f616c6c6f7765640000000000000000000000000000000000000000000000000081525060400191505060405180910390fd5b6000809054906101000a900473ffffffffffffffffffffffffffffffffffffffff1673ffffffffffffffffffffffffffffffffffffffff163373ffffffffffffffffffffffffffffffffffffffff16141515611483576040517f08c379a00000000000000000000000000000000000000000000000000000000081526004018080602001828103825260158152602001807f53656e646572206e6f7420617574686f7269736564000000000000000000000081525060200191505060405180910390fd5b600060018190555060028081111561149757fe5b600c60146101000a81548160ff021916908360028111156114b457fe5b021790555060075460056000828254019250508190555060006007819055506114e0600554602d61296c565b600d6000600960009054906101000a900473ffffffffffffffffffffffffffffffffffffffff1673ffffffffffffffffffffffffffffffffffffffff1673ffffffffffffffffffffffffffffffffffffffff168152602001908152602001600020600401600082825401925050819055506000600a60009054906101000a900473ffffffffffffffffffffffffffffffffffffffff1673ffffffffffffffffffffffffffffffffffffffff16141515611616576115a0600554601961296c565b600d6000600a60009054906101000a900473ffffffffffffffffffffffffffffffffffffffff1673ffffffffffffffffffffffffffffffffffffffff1673ffffffffffffffffffffffffffffffffffffffff16815260200190815260200160002060040160008282540192505081905550611633565b611623600554601961296c565b6007600082825401925050819055505b6000600a60009054906101000a900473ffffffffffffffffffffffffffffffffffffffff1673ffffffffffffffffffffffffffffffffffffffff161415156116f857611682600554600f61296c565b600d6000600a60009054906101000a900473ffffffffffffffffffffffffffffffffffffffff1673ffffffffffffffffffffffffffffffffffffffff1673ffffffffffffffffffffffffffffffffffffffff16815260200190815260200160002060040160008282540192505081905550611715565b611705600554600f61296c565b6007600082825401925050819055505b6000600c60009054906101000a900473ffffffffffffffffffffffffffffffffffffffff1673ffffffffffffffffffffffffffffffffffffffff161415156117da57611764600554600a61296c565b600d6000600c60009054906101000a900473ffffffffffffffffffffffffffffffffffffffff1673ffffffffffffffffffffffffffffffffffffffff1673ffffffffffffffffffffffffffffffffffffffff168152602001908152602001600020600401600082825401925050819055506117f7565b6117e7600554600a61296c565b6007600082825401925050819055505b611804600554600a61296c565b60076000828254019250508190555050565b6000809054906101000a900473ffffffffffffffffffffffffffffffffffffffff1673ffffffffffffffffffffffffffffffffffffffff163373ffffffffffffffffffffffffffffffffffffffff1614156118bd573373ffffffffffffffffffffffffffffffffffffffff166108fc6006549081150290604051600060405180830381858888f193505050501580156118b3573d6000803e3d6000fd5b5060006006819055505b3373ffffffffffffffffffffffffffffffffffffffff166108fc600d60003373ffffffffffffffffffffffffffffffffffffffff1673ffffffffffffffffffffffffffffffffffffffff168152602001908152602001600020600401549081150290604051600060405180830381858888f19350505050158015611945573d6000803e3d6000fd5b506000600d60003373ffffffffffffffffffffffffffffffffffffffff1673ffffffffffffffffffffffffffffffffffffffff16815260200190815260200160002060040181905550565b6000600d60003373ffffffffffffffffffffffffffffffffffffffff1673ffffffffffffffffffffffffffffffffffffffff16815260200190815260200160002060050160009054906101000a900460ff161515611b5357600d60003373ffffffffffffffffffffffffffffffffffffffff1673ffffffffffffffffffffffffffffffffffffffff16815260200190815260200160002090506000816001018190555060018160050160006101000a81548160ff021916908315150217905550600e60008373ffffffffffffffffffffffffffffffffffffffff1673ffffffffffffffffffffffffffffffffffffffff16815260200190815260200160002060010160009054906101000a900460ff1615611ae957818160050160016101000a81548173ffffffffffffffffffffffffffffffffffffffff021916908373ffffffffffffffffffffffffffffffffffffffff1602179055505b600160103390806001815401808255809150509060018203906000526020600020016000909192909190916101000a81548173ffffffffffffffffffffffffffffffffffffffff021916908373ffffffffffffffffffffffffffffffffffffffff16021790555050505b5050565b600081600454810234141515611bfb576040517f08c379a000000000000000000000000000000000000000000000000000000000815260040180806020018281038252602a8152602001807f6e6f7420636f727265637420616d6f756e742065746820666f7220636865657381526020017f652072657175657365640000000000000000000000000000000000000000000081525060400191505060405180910390fd5b600180611c066128a3565b6002811115611c1157fe5b141515611cac576040517f08c379a00000000000000000000000000000000000000000000000000000000081526004018080602001828103825260278152602001807f52616365207374616765206572726f722d206f7065726174696f6e206e6f742081526020017f616c6c6f7765640000000000000000000000000000000000000000000000000081525060400191505060405180910390fd5b60009250611cb98361299c565b600d60003373ffffffffffffffffffffffffffffffffffffffff1673ffffffffffffffffffffffffffffffffffffffff16815260200190815260200160002060050160009054906101000a900460ff161515611d1a57611d196000611990565b5b611d2534601461296c565b3401600d60003373ffffffffffffffffffffffffffffffffffffffff1673ffffffffffffffffffffffffffffffffffffffff16815260200190815260200160002060030160008282540192505081905550611d8134601461296c565b340160086000828254019250508190555050505050565b600080600080600d60003373ffffffffffffffffffffffffffffffffffffffff1673ffffffffffffffffffffffffffffffffffffffff168152602001908152602001600020600001546509184e72a000600d60003373ffffffffffffffffffffffffffffffffffffffff1673ffffffffffffffffffffffffffffffffffffffff16815260200190815260200160002060030154811515611e3457fe5b046509184e72a000600d60003373ffffffffffffffffffffffffffffffffffffffff1673ffffffffffffffffffffffffffffffffffffffff16815260200190815260200160002060010154811515611e8857fe5b046509184e72a000600d60003373ffffffffffffffffffffffffffffffffffffffff1673ffffffffffffffffffffffffffffffffffffffff16815260200190815260200160002060040154811515611edc57fe5b04935093509350935090919293565b60606010805480602002602001604051908101604052809291908181526020018280548015611f6f57602002820191906000526020600020905b8160009054906101000a900473ffffffffffffffffffffffffffffffffffffffff1673ffffffffffffffffffffffffffffffffffffffff1681526020019060010190808311611f25575b5050505050905090565b600080600080600d60008673ffffffffffffffffffffffffffffffffffffffff1673ffffffffffffffffffffffffffffffffffffffff168152602001908152602001600020600001546509184e72a000600d60008873ffffffffffffffffffffffffffffffffffffffff1673ffffffffffffffffffffffffffffffffffffffff1681526020019081526020016000206003015481151561201557fe5b046509184e72a000600d60008973ffffffffffffffffffffffffffffffffffffffff1673ffffffffffffffffffffffffffffffffffffffff1681526020019081526020016000206001015481151561206957fe5b046509184e72a000600d60008a73ffffffffffffffffffffffffffffffffffffffff1673ffffffffffffffffffffffffffffffffffffffff168152602001908152602001600020600401548115156120bd57fe5b0493509350935093509193509193565b6000600e60003373ffffffffffffffffffffffffffffffffffffffff1673ffffffffffffffffffffffffffffffffffffffff16815260200190815260200160002060010160009054906101000a900460ff16151561220657600e60003373ffffffffffffffffffffffffffffffffffffffff1673ffffffffffffffffffffffffffffffffffffffff16815260200190815260200160002090508181600001908051906020019061217e929190612a76565b5060018160010160006101000a81548160ff021916908315150217905550600160113390806001815401808255809150509060018203906000526020600020016000909192909190916101000a81548173ffffffffffffffffffffffffffffffffffffffff021916908373ffffffffffffffffffffffffffffffffffffffff16021790555050505b5050565b60008060009150600090505b6010805490508110156123ac5781600d600060108481548110151561223757fe5b9060005260206000200160009054906101000a900473ffffffffffffffffffffffffffffffffffffffff1673ffffffffffffffffffffffffffffffffffffffff1673ffffffffffffffffffffffffffffffffffffffff16815260200190815260200160002060010154111561239f57600d60006010838154811015156122b957fe5b9060005260206000200160009054906101000a900473ffffffffffffffffffffffffffffffffffffffff1673ffffffffffffffffffffffffffffffffffffffff1673ffffffffffffffffffffffffffffffffffffffff16815260200190815260200160002060010154915060108181548110151561233357fe5b9060005260206000200160009054906101000a900473ffffffffffffffffffffffffffffffffffffffff16600a60006101000a81548173ffffffffffffffffffffffffffffffffffffffff021916908373ffffffffffffffffffffffffffffffffffffffff1602179055505b8080600101915050612216565b60009150600090505b6010805490508110156125dc5781600d60006010848154811015156123d657fe5b9060005260206000200160009054906101000a900473ffffffffffffffffffffffffffffffffffffffff1673ffffffffffffffffffffffffffffffffffffffff1673ffffffffffffffffffffffffffffffffffffffff1681526020019081526020016000206001015411156125cf57600a60009054906101000a900473ffffffffffffffffffffffffffffffffffffffff1673ffffffffffffffffffffffffffffffffffffffff1660108281548110151561248d57fe5b9060005260206000200160009054906101000a900473ffffffffffffffffffffffffffffffffffffffff1673ffffffffffffffffffffffffffffffffffffffff161415156125ce57600d60006010838154811015156124e857fe5b9060005260206000200160009054906101000a900473ffffffffffffffffffffffffffffffffffffffff1673ffffffffffffffffffffffffffffffffffffffff1673ffffffffffffffffffffffffffffffffffffffff16815260200190815260200160002060010154915060108181548110151561256257fe5b9060005260206000200160009054906101000a900473ffffffffffffffffffffffffffffffffffffffff16600b60006101000a81548173ffffffffffffffffffffffffffffffffffffffff021916908373ffffffffffffffffffffffffffffffffffffffff1602179055505b5b80806001019150506123b5565b60009150600090505b60108054905081101561289f5781600d600060108481548110151561260657fe5b9060005260206000200160009054906101000a900473ffffffffffffffffffffffffffffffffffffffff1673ffffffffffffffffffffffffffffffffffffffff1673ffffffffffffffffffffffffffffffffffffffff16815260200190815260200160002060010154111561289257600a60009054906101000a900473ffffffffffffffffffffffffffffffffffffffff1673ffffffffffffffffffffffffffffffffffffffff166010828154811015156126bd57fe5b9060005260206000200160009054906101000a900473ffffffffffffffffffffffffffffffffffffffff1673ffffffffffffffffffffffffffffffffffffffff16141580156127935750600b60009054906101000a900473ffffffffffffffffffffffffffffffffffffffff1673ffffffffffffffffffffffffffffffffffffffff1660108281548110151561274f57fe5b9060005260206000200160009054906101000a900473ffffffffffffffffffffffffffffffffffffffff1673ffffffffffffffffffffffffffffffffffffffff1614155b1561289157600d60006010838154811015156127ab57fe5b9060005260206000200160009054906101000a900473ffffffffffffffffffffffffffffffffffffffff1673ffffffffffffffffffffffffffffffffffffffff1673ffffffffffffffffffffffffffffffffffffffff16815260200190815260200160002060010154915060108181548110151561282557fe5b9060005260206000200160009054906101000a900473ffffffffffffffffffffffffffffffffffffffff16600c60006101000a81548173ffffffffffffffffffffffffffffffffffffffff021916908373ffffffffffffffffffffffffffffffffffffffff1602179055505b5b80806001019150506125e5565b5050565b6000600160028111156128b257fe5b600c60149054906101000a900460ff1660028111156128cd57fe5b1480156128e05750600354600154014210155b80156128ed575060025442105b15612905576002808111156128fe57fe5b9050612969565b6000600281111561291257fe5b600c60149054906101000a900460ff16600281111561292d57fe5b1415801561293d57506002544210155b15612956576000600281111561294f57fe5b9050612969565b600c60149054906101000a900460ff1690505b90565b600061299460646129868486612a2890919063ffffffff16565b612a6090919063ffffffff16565b905092915050565b600080600080925060008473ffffffffffffffffffffffffffffffffffffffff161415156129d2576129cf34600a61296c565b92505b6129dd34600561296c565b9150816006600082825401925050819055506129fa34601961296c565b9050806005600082825401925050819055508082843403030360076000828254019250508190555050505050565b600080831415612a3b5760009050612a5a565b8183029050818382811515612a4c57fe5b04141515612a5657fe5b8090505b92915050565b60008183811515612a6d57fe5b04905092915050565b828054600181600116156101000203166002900490600052602060002090601f016020900481019282601f10612ab757805160ff1916838001178555612ae5565b82800160010185558215612ae5579182015b82811115612ae4578251825591602001919060010190612ac9565b5b509050612af29190612af6565b5090565b612b1891905b80821115612b14576000816000905550600101612afc565b5090565b905600a165627a7a72305820b935e4a21449f3aa9384458135e169e0c5f151378f4f17cdc4d99ed1c08746e70029",
  "source": "pragma solidity ^0.4.24;\n\n               \n//MMMMMMMMMMMMMMMWXKKNWMMMMMMMMMMMMMMMMMMMMMMMMMMMMMMMMMMMMMMMMMMMMMMMMMMMMMMMMMWXKKXW      \n//MMMMMMMMMMMMMWXKXNMMMMMMMMMMMMMMMMMMMMMMMMMMMMMMMMMMMMMMMMMMMMMMMMMMMMMMMMMMMMMMMNKKXW              \n//MMMMMMMMMMMWXKXWMMMMMMMMMMMMMMMMMMMMMMMMMMMMMWWNXXXXXNWWMMMMMMMMMMMMMMMMMMMMMMMMMMMNKKNW            \n//MMMMMMMMMMNKKNMMMMMMMMMMMMMMMMMMMMMMMMMWX0xoc:;,''''',;clxKNMMMMMMMMMMMMMMMMMMMMMMMMMNKKN           \n//MMMMMMMMWXKNMMMMMMMMMMMMMMMMMMMMMMMWXkl:'..................;dKWMMMMMMMMMMMMMMMMMMMMMMMWXKXW         \n//MMMMMMMNKKWMMMMMMMMMMMMMMMMMMMMMMW0l'.........................l0WMMMMMMMMMMMMMMMMMMMMMMMWKKN        \n//MMMMMMX0XWMMMMMMMMMMMMMMMMMMMMMMXo.............................'dNMMMMMMMMMMMMMMMMMMMMMMMWX0N       \n//MMMMWXKNMMMMMMMMMMMMMMMMMMMMMMMNl.....''.........................oNMMMMMMMMMMMMMMMMMMMMMMMMX0X      \n//MMMWXKNMMMMMMMMMMMMMMMMMMMMMMMM0, .,oOKK0kl,...........';:lolc,..xWMMMMMMMMMMMMMMMMMMMMMMMMN0X\n//MMMXKNMMMMMMMMMMMMMMMMMMMMMMMMMO''dKNNNNNNNKkl;;;:cldxOKXNNNNNXkl.'OMMMMMMMMMMMMMMMMMMMMMMMMMN0X \n//MMN0XMMMMMMMMMMMMMMMMMMMMMMMMMWx,dNNNNNNNNNNNNNXXNNNNNNNNNNNNNNNXl,OMMMMMMMMMMMMMMMMMMMMMMMMMMX0N \n//MWKXMMMMMMMMMMMMMMMMMMMMMMMMMMWo,kNNNNNNNNNNNNNNNNNNNNNNNNNNNNNNXc;0MMMMMMMMMMMMMMMMMMMMMMMMMMWKKW \n//MXKWMMMMMMMMMMMMMMMMMMMMMMMMMMNc;ONNNNNNNNNNNNNNNNNNNNNNNNNNNNNNXl;0MMMMMMMMMMMMMMMMMMMMMMMMMMMN0X \n//NKXMMMMMMMMMMMMMMMMMMMMMMMMMMMX:;0NXOxolllodk0XNNNNNNNKOxolllodxOl,kMMMMMMMMMMMMMMMMMMMMMMMMMMMMX0W \n//XKWMMMMMMMMMMMMMMMMMMMMMMMMMMWO;;xl,...'''....;o0NNXkc'...'''......cXMMMMMMMMMMMMMMMMMMMMMMMMMMMN0X \n//KKMMMMMMMMMMMMMMMMMMMMMMMMMMKl:,...,:c:;;;;:c:'.'lxc..';;;;;:lol:'..:OWMMMMMMMMMMMMMMMMMMMMMMMMMMKKW\n//0XMMMMMMMMMMMMMMMMMMMMMMMMMWx,ol..:dl,.    .;oo;.   .:c.     .cddo;  'OMMMMMMMMMMMMMMMMMMMMMMMMMMX0N\n//0NMMMMMMMMMMMMMMMMMMMMMMMMMWd,oc .ldoc;''',;lddc.   .;l:,''',:oddl,  .xWMMMMMMMMMMMMMMMMMMMMMMMMMN0N\n//KWMMMMMMMMMMMMMMMMMMMMMMMMMWd,xk'.,ldddddddddoc' .;;...;cllooll:;..,;'xWMMMMMMMMMMMMMMMMMMMMMMMMMNKN\n//KWMMMMMMMMMMMMMMMMMMMMMMMMMWx,dXO:..';:cllc:;.. .oKXk' .........,cxKd,xMMMMMMMMMMMMMMMMMMMMMMMMMMWKN\n//KNMMMMMMMMMMMMMMMMMMMMMMMMMMXd;cxOOo:,'....',:;.,x0Okc.;kOxxxkO0XNNNx,oWMMMMMMMMMMMMMMMMMMMMMMMMMNKN\n//0NMMMMMMMMMMMMMMMMMMMMMMMMMMMWKo,lKNNXK0OO0KXXk::lllllokXNNNNNNNN0occckWMMMMMMMMMMMMMMMMMMMMMMMMMX0N\n//0XMMMMMMMMMMMMMMMMMMMMMMMMMMMMMWd,xNNNNNNNNNNNNXXNNNNNNXxo0NNNNNKc,xXNMMMMMMMMMMMMMMMMMMMMMMMMMMMX0W\n//KKWMMMMMMMMMMMMMMMMMMMMMMMMMMMMMXc;kNNNNNNNNNXXNNNNNNXXO;:0NNNNXd,dWMMMMMMMMMMMMMMMMMMMMMMMMMMMMWKK \n//XKNMMMMMMMMMMMMMMMMMMMMMMMMMMMMMWO,;ONNNNXklllllllllllc:ckNNNNNx'.xWMMMMMMMMMMMMMMMMMMMMMMMMMMMMN0N  \n//WKKMMMMMMMMMMMMMMMMMMMMMMMMMMMWKo,  ,kNNNNK000000000000KXNNNNXx'  .l0WMMMMMMMMMMMMMMMMMMMMMMMMMWKKW\n//MN0NMMMMMMMMMMMMMMMMMMMMMMMMNOc.    .,oKNNNNNNNNNNNNNNNNNNNNKo'.    .oKWMMMMMMMMMMMMMMMMMMMMMMMX0N \n//MWKKWMMMMMMMMMMMMMMMMMMMMMNk;.  .:c',:,;dKNNNNNNNNNNNNNNNNKx;,;';d;   'kWMMMMMMMMMMMMMMMMMMMMMW0K   \n//MMWKKWMMMMMMMMMMMMMMMMMMMMX:    .,;.;ddc,;lx0XNNNNNNNNX0kl;,cdo';d:.   cXMMMMMMMMMMMMMMMMMMMMWKKW   \n//MMMNKXWMMMMMMMMMMMMMMMMMMMWKxc;..   ;dxxxo:;;:cllllllc:;;:ldxxl.    .;dKWMMMMMMMMMMMMMMMMMMMWKKW    \n//MMMMNKXWMMMMMMMMMMMMMMMMMMMMMMWX0xc.,dxxxxxxdolcccccclodxxxxxxl. .;d0NMMMMMMMMMMMMMMMMMMMMMWKKW     \n//MMMMMNKKWMMMMMMMMMMMMMMMMMMMMMMMMMK:';;,,,,,,,;;;;;;;;;;;;;;::,.lKWMMMMMMMMMMMMMMMMMMMMMMMWKKW      \n//MMMMMMWKKNMMMMMMMMMMMMMMMMMMMMMMMMWX0d'                     .:dkXMMMMMMMMMMMMMMMMMMMMMMMMN0KW       \n//MMMMMMMWXKXWMMMMMMMMMMMMMMMMMMMMMMMWO;                       'kWMMMMMMMMMMMMMMMMMMMMMMMWX0XW        \n//MMMMMMMMMNKKNMMMMMMMMMMMMMMMMMMMMMMKc.',,.               .,'..'kWMMMMMMMMMMMMMMMMMMMMMNKKN          \n//MMMMMMMMMMWXKXWMMMMMMMMMMMMMMMMMMMMWXXNN0c;:clodxxxxol:;,:0NK0OKWMMMMMMMMMMMMMMMMMMMNKKXW           \n//MMMMMMMMMMMMWXKXWMMMMMMMMMMMMMMMMMMMMMMMMWWWMMMMMMMMMMMWNNWMMMMMMMMMMMMMMMMMMMMMMMNKKXW             \n//MMMMMMMMMMMMMMWXKXNWMMMMMMMMMMMMMMMMMMMMMMMMMMMMMMMMMMMMMMMMMMMMMMMMMMMMMMMMMMMWNKKXW               \n//MMMMMMMMMMMMMMMMWNKKXWMMMMMMMMMMMMMM     www.apelslab.com   MMMMMMMMMMMMMMMMMNXKKNW                 \n//MMMMMMMMMMMMMMMMMMMNXKKXWMMMMMMMMMMMMMMMMMMMMMMMMMMMMMMMMMMMMMMMMMMMMMMMMWNXKKXW                    \n//MMMMMMMMMMMMMMMMMMMMMMNXXXXNWMMMMMMMMMMMMMMMMMMMMMMMMMMMMMMMMMMMMMMMMMWNXKKXN                       \n//MMMMMMMMMMMMMMMMMMMMMMMMMWNXXXXXNWMMMMMMMMMMMMMMMMMMMMMMMMMMMMMMMWNXXKXXNW                          \n\n\nlibrary SafeMath {\n  // Thank you Da Vinci Coders for library SafeMath\n  \n  function mul(uint a, uint b) internal pure returns (uint c) {\n    if (a == 0) {\n      return 0;\n    }\n\n    c = a * b;\n    assert(c / a == b);\n    return c;\n  }\n\n  function div(uint a, uint b) internal pure returns (uint) {\n    return a / b;\n  }\n\n  function mod(uint a, uint b) internal pure returns (uint) {\n    return a % b;\n  }\n\n  function sub(uint a, uint b) internal pure returns (uint) {\n    assert(b <= a);\n    return a - b;\n  }\n\n  function add(uint a, uint b) internal pure returns (uint c) {\n    c = a + b;\n    assert(c >= a);\n    return c;\n  }\n  \n}\n\n\n\nlibrary Utils {\n// Thank you Da Vinci Coders for library Utils\n\nusing SafeMath for *;\n\n  function percentageOf (uint _value, uint _p) internal pure returns (uint) {\n    return _value.mul(_p).div(100);\n  }\n\n  function validReferralCode (string _code) internal pure returns (bool) {\n    bytes memory b = bytes(_code);\n\n    if (b.length < 3) {\n      return false;\n    }\n\n    for (uint i = 0; i < b.length; i++) {\n      bytes1 c = b[i];\n      if (\n        !(c >= 0x30 && c <= 0x39) && // 0-9\n        !(c >= 0x41 && c <= 0x5A) && // A-Z\n        !(c >= 0x61 && c <= 0x7A) && // a-z\n        !(c == 0x2D) // -\n      ) {\n        return false;\n      }\n    }\n      \n  }\n    \n}\n\ncontract Constants {\n  uint internal constant FIRST_RACE_CHEEZE_PRICE = 1 finney;// 0.001 ETH\n  uint internal constant FIRST_RACE_PRESALE_DURATION = 500 seconds;//6 hours; \n  uint internal constant RACE_DURATION = 5 seconds;//24 hours; \n  uint internal constant ADD_TIME_PER_CHEESE = 60 seconds;\n  uint internal constant VALUE_NORMALIZE_BY = 10000000000000;\n  \n  enum STAGES { COOL_DOWN, PRESALE, ACTIVE }\n}\n\ncontract State is Constants {\n  address internal ratRaceOwner; \n  uint    internal presaleStartTime   = 0;\n  uint    internal raceFinishTime  = 0;\n  uint    internal presaleDuration = FIRST_RACE_PRESALE_DURATION;\n  uint    internal cheesePrice = FIRST_RACE_CHEEZE_PRICE;\n  uint    internal ratPot = 0;\n  uint    internal ratRaceOwnerPurse = 0;\n  uint    internal unsplitDividendes = 0;\n  uint    internal presalePayable = 0;\n  address internal leader;\n  address internal fatRat1;\n  address internal fatRat2;\n  address internal fatRat3;\n  \n  \n  // This is the current stage.\n  STAGES internal stage = STAGES.COOL_DOWN;\n}\n\n\ncontract RatRace is State {\n\n      \n//    uint    private   raceFinishTime = 0;\n//    address private   currentLeader;\n//    uint    private   ratPot;\n//    uint    private   ratRaceOwnerPurse;\n//    uint    private   totalCheeseInGame = 0;\n\n    constructor() public {\n        ratRaceOwner = msg.sender;\n    }\n    \n\n    // This declares Rat that can run in rat race;\n    struct Rat {\n        bytes32 name;           //rat name (up to 32 bytes)\n        uint weightInRace;    //rat's weight\n        uint lastFeededTime; //rat last feed time- determines place in race\n        uint presaleAmount; //Presale Unpaind Amount\n        uint balance;       //current rat balance\n        bool exist;         //to check if it exists later when manipulating rat\n        address referral;   //referral address\n    }\n    \n    struct Referral {\n        string  code;\n        bool exist;\n    }\n    \n    struct Breadcrumb {\n        uint weight;\n    }\n    \n\n    mapping(address => Rat) internal rats;\n    mapping(address => Referral) private referrals;\n    mapping(address => Breadcrumb) private breadcrumbs;\n    \n    address[] internal ratAccounts;\n    address[] internal referralAccounts;\n    address[] internal breadcrumbAccounts;\n    \n    \n    modifier onlyRatRaceOwner(){\n        require(\n            msg.sender == ratRaceOwner,\n            \"Sender not authorised\"\n            );\n        _;\n    }\n    \n\n    \n    modifier raceAtStage(uint _stage){\n        require(\n            uint(stageByTime()) == _stage,\n            \"Race stage error- operation not allowed\"\n            );\n        _;\n    }\n\n    modifier msgValueEnough(uint cheeseCount){\n        require(\n            msg.value == (cheeseCount * cheesePrice),\n            \"not correct amount eth for cheese requesed\"\n            );\n        _;\n    }\n    \n   function createRat(address _ref)  public payable{\n       if (!rats[msg.sender].exist) { // create rate only if it does not exist\n            Rat storage newRat = rats[msg.sender];\n            newRat.weightInRace = 0;\n            newRat.exist = true;\n            if (referrals[_ref].exist) {\n                newRat.referral = _ref;\n            }\n            ratAccounts.push(msg.sender) - 1;\n       }\n    }\n    \n   /*\n    \n    function getRefferals() public constant returns(address[]) {\n        return referralAccounts;\n    }\n    \n    \n    */\n        function getRats() public constant returns(address[]) {\n        return ratAccounts;\n    }\n    \n    function getRat(address ins) view public returns (bytes32, uint, uint, uint) {\n        return (rats[ins].name,rats[ins].presaleAmount / VALUE_NORMALIZE_BY,rats[ins].weightInRace / VALUE_NORMALIZE_BY,rats[ins].balance / VALUE_NORMALIZE_BY);\n    }\n  \n    function myRat() view public returns (bytes32, uint, uint, uint) {\n        return (rats[msg.sender].name,rats[msg.sender].presaleAmount / VALUE_NORMALIZE_BY,rats[msg.sender].weightInRace / VALUE_NORMALIZE_BY,rats[msg.sender].balance / VALUE_NORMALIZE_BY);\n    }\n\n    function updateFatRatTop() public payable {\n        uint maxWeight = 0;\n        for (uint i=0; i<ratAccounts.length; i++){\n            if (rats[ratAccounts[i]].weightInRace > maxWeight){\n                maxWeight = rats[ratAccounts[i]].weightInRace;\n                fatRat1 = ratAccounts[i];\n            }\n        }\n        maxWeight = 0;\n        for (i=0; i<ratAccounts.length; i++){\n            if (rats[ratAccounts[i]].weightInRace > maxWeight){\n                if (ratAccounts[i] != fatRat1){\n                    maxWeight = rats[ratAccounts[i]].weightInRace;\n                    fatRat2 = ratAccounts[i];\n                }\n            }\n        }\n        maxWeight = 0;\n        for (i=0; i<ratAccounts.length; i++){\n            if (rats[ratAccounts[i]].weightInRace > maxWeight){\n                if (ratAccounts[i] != fatRat1 && ratAccounts[i] != fatRat2){\n                    maxWeight = rats[ratAccounts[i]].weightInRace;\n                    fatRat3 = ratAccounts[i];\n                }\n            }\n        }\n    }\n  \n      function registerReferral(string code)\n        public \n        payable\n        {\n        if (!referrals[msg.sender].exist) {\n            Referral storage newRef = referrals[msg.sender];\n            newRef.code = code;\n            newRef.exist = true;\n            referralAccounts.push(msg.sender) - 1;\n            }\n    }\n    \n\n\n\n    function stageByTime() internal view returns(STAGES){\n        //presale finished -> Race is active\n        if (stage == STAGES.PRESALE &&\n                now >= presaleStartTime + presaleDuration &&\n                now <raceFinishTime)\n            return(STAGES(2));\n        //race finished -> Race finished (Cooldown)\n        if (stage != STAGES.COOL_DOWN &&\n                now >= raceFinishTime)\n            return (STAGES(0));\n        //if not presale or race finished stage by time is actual stage\n        return(stage);    \n    }\n    \n    modifier timedTransitions() {\n         if (stageByTime() != stage){\n          stage = stageByTime();\n            }\n        _;\n    }\n\n    function raceInfo() \n                    public \n                    view\n                   // timedTransitions()\n                    returns (uint,uint, uint,uint, uint) {\n       return (uint(stageByTime()),\n                    ratPot / VALUE_NORMALIZE_BY, \n                    ratRaceOwnerPurse / VALUE_NORMALIZE_BY, \n                    unsplitDividendes / VALUE_NORMALIZE_BY, \n                    presalePayable / VALUE_NORMALIZE_BY);\n    }    \n    \n    function startPresale()\n                public \n                payable \n                raceAtStage(0) \n                onlyRatRaceOwner {\n                    //State params\n                    presaleStartTime   = now;\n                    raceFinishTime  = presaleStartTime + presaleDuration + RACE_DURATION;\n                    ratPot = 0;\n                    presalePayable = 0;\n                   // unloadRats();\n                    for (uint i=0; i<ratAccounts.length; i++){\n                         rats[ratAccounts[i]].weightInRace = 0;\n                         rats[ratAccounts[i]].lastFeededTime = 0;\n                         rats[ratAccounts[i]].presaleAmount = 0;\n                    }\n                    \n                   stage = STAGES(1);\n                   //  currentLeader = 0;\n    }\n    \n    function withdraw() public payable{\n        if (msg.sender == ratRaceOwner){\n            msg.sender.transfer(ratRaceOwnerPurse);\n            ratRaceOwnerPurse=0;\n        }\n        msg.sender.transfer(rats[msg.sender].balance);\n        rats[msg.sender].balance = 0;\n    }\n    \n    function endPresaleStartRace()\n                public \n                payable \n                raceAtStage(1) \n                onlyRatRaceOwner {\n                   presaleStartTime   = 0;\n                   stage = STAGES(2);\n    }\n    \n    \n    \n    function endRace()\n                public \n                payable \n                raceAtStage(2) \n                onlyRatRaceOwner {\n                   presaleStartTime   = 0;\n                   stage = STAGES(2);\n                   \n                   //add all unsplit dust to ratPot\n                   ratPot += unsplitDividendes;\n                   unsplitDividendes = 0;//safer is to call it there \n                   \n                   //45% winning rat\n                   rats[leader].balance += Utils.percentageOf(ratPot,45);\n                   \n                   //25% to fattest rat\n                    if (fatRat1 != 0){\n                        rats[fatRat1].balance += Utils.percentageOf(ratPot,25);\n                    }else{\n                        unsplitDividendes += Utils.percentageOf(ratPot,25);\n                    }\n                   \n                   //15% to 2nd fattest rat\n                    if (fatRat1 != 0){\n                        rats[fatRat1].balance += Utils.percentageOf(ratPot,15);\n                    }else{\n                        unsplitDividendes += Utils.percentageOf(ratPot,15);\n                    }\n                    \n                   //10% to 3d fattest rat\n                    if (fatRat3 != 0){\n                        rats[fatRat3].balance += Utils.percentageOf(ratPot,10);\n                    }else{\n                        unsplitDividendes += Utils.percentageOf(ratPot,10);\n                    }\n                   \n                   //10% to next round\n                   unsplitDividendes += Utils.percentageOf(ratPot,10);\n    }\n    \n    \n    function splitPurse(address _referal)\n        private\n        {\n        // 10% -> Refferal if exist\n        uint _toRefferal = 0;\n        if (_referal != 0){\n          _toRefferal  = Utils.percentageOf(msg.value,10);\n        }\n        // 5% ->  Developers\n        uint _toDeveloper = Utils.percentageOf(msg.value,5);\n        ratRaceOwnerPurse += _toDeveloper;\n        // 25% -> Ratpot\n        uint _toRatpot = Utils.percentageOf(msg.value,25);\n        ratPot += _toRatpot;\n        // Whats left (60% or more) -> Dividendes\n        unsplitDividendes += msg.value - _toRefferal - _toDeveloper - _toRatpot; \n    }\n    \n    function buyPresale(uint _cheese)//,address _referal)\n        public \n        payable \n        msgValueEnough(_cheese)\n        raceAtStage(1)  {\n            address _referal = 0;\n            \n        splitPurse(_referal);\n        \n        //add rat to presale if not exist;\n        if (!rats[msg.sender].exist) {\n            createRat(0);\n            }\n        //Presale Rat weight is value + 20 %\n        rats[msg.sender].presaleAmount += msg.value + Utils.percentageOf(msg.value,20);\n        State.presalePayable += msg.value + Utils.percentageOf(msg.value,20);\n    }\n    \n    function feedMyRat(uint cheese)//,address _referal)\n        public \n        payable\n        raceAtStage(2) \n        msgValueEnough(cheese)\n        {\n        // need to be put in params, here for ease of testing\n        address _referal = 0;\n        \n        //Create Rat if not exist\n        if (!rats[msg.sender].exist) {\n            createRat(_referal);\n        }\n            \n        // rat weight is calculated in finneys- msg.value + 20%\n        uint cheeseWeight = msg.value + Utils.percentageOf(msg.value,20);\n        \n        //increase rat weight\n        rats[msg.sender].weightInRace += cheeseWeight;\n        \n        // This is new leader\n        leader = msg.sender;\n        rats[msg.sender].lastFeededTime = now;\n\n        //add new breadcrumb with weight\n        Breadcrumb storage newBreadcrumb = breadcrumbs[msg.sender];\n        newBreadcrumb.weight = cheeseWeight;\n        breadcrumbAccounts.push(msg.sender) - 1;\n                \n        //Race time increased\n        raceFinishTime+= cheese * ADD_TIME_PER_CHEESE;\n        \n        splitPurse(_referal);\n        \n        //pay for presale dividends if needed and enough dividends\n        if (State.presalePayable !=0 && State.presalePayable <= State.unsplitDividendes){\n                for (uint i=0; i<ratAccounts.length; i++) {\n                  State.unsplitDividendes -= rats[ratAccounts[i]].presaleAmount;\n                  State.presalePayable    -= rats[ratAccounts[i]].presaleAmount;\n                  rats[ratAccounts[i]].balance += rats[ratAccounts[i]].presaleAmount;\n                  rats[ratAccounts[i]].presaleAmount = 0;\n                }\n        }\n        \n        // if presale is cleared and we still have usnplit dividendes -> pay rat dividendes\n        if (State.presalePayable == 0 && State.unsplitDividendes > 0){\n                for (uint ir=0; i<breadcrumbAccounts.length; i++) {\n                  if (State.unsplitDividendes < breadcrumbs[breadcrumbAccounts[ir]].weight){ break; }\n                  State.unsplitDividendes -= breadcrumbs[breadcrumbAccounts[ir]].weight;\n                  rats[breadcrumbAccounts[ir]].balance += breadcrumbs[breadcrumbAccounts[ir]].weight;\n                  rats[breadcrumbAccounts[ir]].weightInRace -= breadcrumbs[breadcrumbAccounts[ir]].weight;\n                  breadcrumbs[breadcrumbAccounts[ir]].weight = 0;\n                }            \n        }\n        \n        updateFatRatTop();\n    }\n}\n",
  "sourcePath": "/Users/marisapels/Documents/Projects/ratRace/src/drizzle-react/src/contracts/RatRace.sol",
  "compiler": {
    "name": "solc",
    "version": "0.4.24+commit.e67f0147.Emscripten.clang"
  },
  "schemaVersion": "2.0.1",
  "updatedAt": "2018-09-20T10:39:55.659Z"
}